{
    "address": "0xe7f1725E7734CE288F8367e1Bb143E90bb3F0512",
    "abi": [
        {
            "inputs": [
                {
                    "internalType": "address",
                    "name": "priceFeedAddress",
                    "type": "address"
                }
            ],
            "stateMutability": "nonpayable",
            "type": "constructor"
        },
        {
            "inputs": [],
            "name": "FundMe__NotOwner",
            "type": "error"
        },
        {
            "stateMutability": "payable",
            "type": "fallback"
        },
        {
            "inputs": [],
            "name": "MIN_USD",
            "outputs": [
                {
                    "internalType": "uint256",
                    "name": "",
                    "type": "uint256"
                }
            ],
            "stateMutability": "view",
            "type": "function"
        },
        {
            "inputs": [],
            "name": "fund",
            "outputs": [],
            "stateMutability": "payable",
            "type": "function"
        },
        {
            "inputs": [],
            "name": "i_owner",
            "outputs": [
                {
                    "internalType": "address",
                    "name": "",
                    "type": "address"
                }
            ],
            "stateMutability": "view",
            "type": "function"
        },
        {
            "inputs": [
                {
                    "internalType": "address",
                    "name": "",
                    "type": "address"
                }
            ],
            "name": "s_addressToAmountFunded",
            "outputs": [
                {
                    "internalType": "uint256",
                    "name": "",
                    "type": "uint256"
                }
            ],
            "stateMutability": "view",
            "type": "function"
        },
        {
            "inputs": [
                {
                    "internalType": "uint256",
                    "name": "",
                    "type": "uint256"
                }
            ],
            "name": "s_funders",
            "outputs": [
                {
                    "internalType": "address",
                    "name": "",
                    "type": "address"
                }
            ],
            "stateMutability": "view",
            "type": "function"
        },
        {
            "inputs": [],
            "name": "s_priceFeed",
            "outputs": [
                {
                    "internalType": "contract AggregatorV3Interface",
                    "name": "",
                    "type": "address"
                }
            ],
            "stateMutability": "view",
            "type": "function"
        },
        {
            "inputs": [],
            "name": "withdraw",
            "outputs": [],
            "stateMutability": "nonpayable",
            "type": "function"
        },
        {
            "stateMutability": "payable",
            "type": "receive"
        }
    ],
    "transactionHash": "0x263ff122a0562412490da3d754041fed6dd568d35794bc3d84ec40081906ad4d",
    "args": [
        "0x5FbDB2315678afecb367f032d93F642f64180aa3"
    ],
    "numDeployments": 1,
    "solcInputHash": "5c74730d2d6ffc71b4df9ce4902c7904",
    "bytecode": "0x60a06040523480156200001157600080fd5b50604051620014e4380380620014e483398181016040528101906200003791906200023b565b3373ffffffffffffffffffffffffffffffffffffffff1660808173ffffffffffffffffffffffffffffffffffffffff1660601b8152505080600260006101000a81548173ffffffffffffffffffffffffffffffffffffffff021916908373ffffffffffffffffffffffffffffffffffffffff160217905550620000fb6040518060400160405280601381526020017f70726963654665656420416464726573733a2000000000000000000000000000815250826200010260201b620006821760201c565b5062000356565b620001a482826040516024016200011b92919062000322565b6040516020818303038152906040527f319af333000000000000000000000000000000000000000000000000000000007bffffffffffffffffffffffffffffffffffffffffffffffffffffffff19166020820180517bffffffffffffffffffffffffffffffffffffffffffffffffffffffff8381831617835250505050620001a860201b60201c565b5050565b60008151905060006a636f6e736f6c652e6c6f679050602083016000808483855afa5050505050565b600080fd5b600073ffffffffffffffffffffffffffffffffffffffff82169050919050565b60006200020382620001d6565b9050919050565b6200021581620001f6565b81146200022157600080fd5b50565b60008151905062000235816200020a565b92915050565b600060208284031215620002545762000253620001d1565b5b6000620002648482850162000224565b91505092915050565b600081519050919050565b600082825260208201905092915050565b60005b83811015620002a95780820151818401526020810190506200028c565b83811115620002b9576000848401525b50505050565b6000601f19601f8301169050919050565b6000620002dd826200026d565b620002e9818562000278565b9350620002fb81856020860162000289565b6200030681620002bf565b840191505092915050565b6200031c81620001f6565b82525050565b600060408201905081810360008301526200033e8185620002d0565b90506200034f602083018462000311565b9392505050565b60805160601c6111686200037c600039600081816103e1015261066001526111686000f3fe6080604052600436106100745760003560e01c80633ccfd60b1161004e5780633ccfd60b1461012057806354861af714610137578063b60d428814610174578063dba6335f1461017e57610083565b80630ec3b0271461008d5780631bf6132d146100b8578063213dbea2146100f557610083565b36610083576100816101a9565b005b61008b6101a9565b005b34801561009957600080fd5b506100a2610395565b6040516100af91906109d4565b60405180910390f35b3480156100c457600080fd5b506100df60048036038101906100da9190610a32565b6103bb565b6040516100ec9190610a78565b60405180910390f35b34801561010157600080fd5b5061010a6103d3565b6040516101179190610a78565b60405180910390f35b34801561012c57600080fd5b506101356103df565b005b34801561014357600080fd5b5061015e60048036038101906101599190610abf565b61061f565b60405161016b9190610afb565b60405180910390f35b61017c6101a9565b005b34801561018a57600080fd5b5061019361065e565b6040516101a09190610afb565b60405180910390f35b674563918244f400006101e7600260009054906101000a900473ffffffffffffffffffffffffffffffffffffffff163461071e90919063ffffffff16565b1015610228576040517f08c379a000000000000000000000000000000000000000000000000000000000815260040161021f90610b73565b60405180910390fd5b61029b6040518060400160405280600c81526020017f6d73672e76616c7565203d200000000000000000000000000000000000000000815250610296600260009054906101000a900473ffffffffffffffffffffffffffffffffffffffff163461071e90919063ffffffff16565b6107e9565b6000339080600181540180825580915050600190039060005260206000200160009091909190916101000a81548173ffffffffffffffffffffffffffffffffffffffff021916908373ffffffffffffffffffffffffffffffffffffffff16021790555061033d6040518060400160405280601481526020017f4a7573742066756e6465642066756e6465723a2000000000000000000000000081525033610682565b34600160003373ffffffffffffffffffffffffffffffffffffffff1673ffffffffffffffffffffffffffffffffffffffff168152602001908152602001600020600082825461038c9190610bc2565b92505081905550565b600260009054906101000a900473ffffffffffffffffffffffffffffffffffffffff1681565b60016020528060005260406000206000915090505481565b674563918244f4000081565b7f000000000000000000000000000000000000000000000000000000000000000073ffffffffffffffffffffffffffffffffffffffff163373ffffffffffffffffffffffffffffffffffffffff1614610464576040517f579610db00000000000000000000000000000000000000000000000000000000815260040160405180910390fd5b60005b60008054905081101561050f57600080828154811061048957610488610c18565b5b9060005260206000200160009054906101000a900473ffffffffffffffffffffffffffffffffffffffff1690506000600160008373ffffffffffffffffffffffffffffffffffffffff1673ffffffffffffffffffffffffffffffffffffffff1681526020019081526020016000208190555050808061050790610c47565b915050610467565b50600067ffffffffffffffff81111561052b5761052a610c90565b5b6040519080825280602002602001820160405280156105595781602001602082028036833780820191505090505b506000908051906020019061056f9291906108ae565b5060003373ffffffffffffffffffffffffffffffffffffffff164760405161059690610cf0565b60006040518083038185875af1925050503d80600081146105d3576040519150601f19603f3d011682016040523d82523d6000602084013e6105d8565b606091505b505090508061061c576040517f08c379a000000000000000000000000000000000000000000000000000000000815260040161061390610d51565b60405180910390fd5b50565b6000818154811061062f57600080fd5b906000526020600020016000915054906101000a900473ffffffffffffffffffffffffffffffffffffffff1681565b7f000000000000000000000000000000000000000000000000000000000000000081565b61071a8282604051602401610698929190610df9565b6040516020818303038152906040527f319af333000000000000000000000000000000000000000000000000000000007bffffffffffffffffffffffffffffffffffffffffffffffffffffffff19166020820180517bffffffffffffffffffffffffffffffffffffffffffffffffffffffff8381831617835250505050610885565b5050565b6000808273ffffffffffffffffffffffffffffffffffffffff1663feaf968c6040518163ffffffff1660e01b815260040160a06040518083038186803b15801561076757600080fd5b505afa15801561077b573d6000803e3d6000fd5b505050506040513d601f19601f8201168201806040525081019061079f9190610eb6565b50505091505060006402540be400826107b89190610f31565b90506000670de0b6b3a764000086836107d19190611048565b6107db91906110d1565b905080935050505092915050565b61088182826040516024016107ff929190611102565b6040516020818303038152906040527f9710a9d0000000000000000000000000000000000000000000000000000000007bffffffffffffffffffffffffffffffffffffffffffffffffffffffff19166020820180517bffffffffffffffffffffffffffffffffffffffffffffffffffffffff8381831617835250505050610885565b5050565b60008151905060006a636f6e736f6c652e6c6f679050602083016000808483855afa5050505050565b828054828255906000526020600020908101928215610927579160200282015b828111156109265782518260006101000a81548173ffffffffffffffffffffffffffffffffffffffff021916908373ffffffffffffffffffffffffffffffffffffffff160217905550916020019190600101906108ce565b5b5090506109349190610938565b5090565b5b80821115610951576000816000905550600101610939565b5090565b600073ffffffffffffffffffffffffffffffffffffffff82169050919050565b6000819050919050565b600061099a61099561099084610955565b610975565b610955565b9050919050565b60006109ac8261097f565b9050919050565b60006109be826109a1565b9050919050565b6109ce816109b3565b82525050565b60006020820190506109e960008301846109c5565b92915050565b600080fd5b60006109ff82610955565b9050919050565b610a0f816109f4565b8114610a1a57600080fd5b50565b600081359050610a2c81610a06565b92915050565b600060208284031215610a4857610a476109ef565b5b6000610a5684828501610a1d565b91505092915050565b6000819050919050565b610a7281610a5f565b82525050565b6000602082019050610a8d6000830184610a69565b92915050565b610a9c81610a5f565b8114610aa757600080fd5b50565b600081359050610ab981610a93565b92915050565b600060208284031215610ad557610ad46109ef565b5b6000610ae384828501610aaa565b91505092915050565b610af5816109f4565b82525050565b6000602082019050610b106000830184610aec565b92915050565b600082825260208201905092915050565b7f4469646e27742073656e6420656e6f7567680000000000000000000000000000600082015250565b6000610b5d601283610b16565b9150610b6882610b27565b602082019050919050565b60006020820190508181036000830152610b8c81610b50565b9050919050565b7f4e487b7100000000000000000000000000000000000000000000000000000000600052601160045260246000fd5b6000610bcd82610a5f565b9150610bd883610a5f565b9250827fffffffffffffffffffffffffffffffffffffffffffffffffffffffffffffffff03821115610c0d57610c0c610b93565b5b828201905092915050565b7f4e487b7100000000000000000000000000000000000000000000000000000000600052603260045260246000fd5b6000610c5282610a5f565b91507fffffffffffffffffffffffffffffffffffffffffffffffffffffffffffffffff821415610c8557610c84610b93565b5b600182019050919050565b7f4e487b7100000000000000000000000000000000000000000000000000000000600052604160045260246000fd5b600081905092915050565b50565b6000610cda600083610cbf565b9150610ce582610cca565b600082019050919050565b6000610cfb82610ccd565b9150819050919050565b7f63616c6c206661696c6564000000000000000000000000000000000000000000600082015250565b6000610d3b600b83610b16565b9150610d4682610d05565b602082019050919050565b60006020820190508181036000830152610d6a81610d2e565b9050919050565b600081519050919050565b60005b83811015610d9a578082015181840152602081019050610d7f565b83811115610da9576000848401525b50505050565b6000601f19601f8301169050919050565b6000610dcb82610d71565b610dd58185610b16565b9350610de5818560208601610d7c565b610dee81610daf565b840191505092915050565b60006040820190508181036000830152610e138185610dc0565b9050610e226020830184610aec565b9392505050565b600069ffffffffffffffffffff82169050919050565b610e4881610e29565b8114610e5357600080fd5b50565b600081519050610e6581610e3f565b92915050565b6000819050919050565b610e7e81610e6b565b8114610e8957600080fd5b50565b600081519050610e9b81610e75565b92915050565b600081519050610eb081610a93565b92915050565b600080600080600060a08688031215610ed257610ed16109ef565b5b6000610ee088828901610e56565b9550506020610ef188828901610e8c565b9450506040610f0288828901610ea1565b9350506060610f1388828901610ea1565b9250506080610f2488828901610e56565b9150509295509295909350565b6000610f3c82610e6b565b9150610f4783610e6b565b9250827f7fffffffffffffffffffffffffffffffffffffffffffffffffffffffffffffff0482116000841360008413161615610f8657610f85610b93565b5b817f80000000000000000000000000000000000000000000000000000000000000000583126000841260008413161615610fc357610fc2610b93565b5b827f8000000000000000000000000000000000000000000000000000000000000000058212600084136000841216161561100057610fff610b93565b5b827f7fffffffffffffffffffffffffffffffffffffffffffffffffffffffffffffff058212600084126000841216161561103d5761103c610b93565b5b828202905092915050565b600061105382610a5f565b915061105e83610a5f565b9250817fffffffffffffffffffffffffffffffffffffffffffffffffffffffffffffffff048311821515161561109757611096610b93565b5b828202905092915050565b7f4e487b7100000000000000000000000000000000000000000000000000000000600052601260045260246000fd5b60006110dc82610a5f565b91506110e783610a5f565b9250826110f7576110f66110a2565b5b828204905092915050565b6000604082019050818103600083015261111c8185610dc0565b905061112b6020830184610a69565b939250505056fea264697066735822122082a411f249ed617fb3c564e2751294e99285a7be81237f1f916f0f40516063bc64736f6c63430008080033",
    "devdoc": {
        "author": "Aman K",
        "details": "This implements price feeds as our library ",
        "kind": "dev",
        "methods": {
            "fund()": {
                "details": "This implements price feeds as our library"
            },
            "withdraw()": {
                "details": "This implements price feeds as our library"
            }
        },
        "title": "A contract for crowd funding",
        "version": 1
    },
    "userdoc": {
        "kind": "user",
        "methods": {
            "fund()": {
                "notice": "This function funds this contract"
            },
            "withdraw()": {
                "notice": "This function is used by the owner only to withdraw the funds"
            }
        },
        "notice": "This contract is to demo a sample funding contract",
        "version": 1
    },
    "storageLayout": {
        "storage": [
            {
                "astId": 64,
                "contract": "contracts/FundMe.sol:FundMe",
                "label": "s_funders",
                "offset": 0,
                "slot": "0",
                "type": "t_array(t_address)dyn_storage"
            },
            {
                "astId": 68,
                "contract": "contracts/FundMe.sol:FundMe",
                "label": "s_addressToAmountFunded",
                "offset": 0,
                "slot": "1",
                "type": "t_mapping(t_address,t_uint256)"
            },
            {
                "astId": 73,
                "contract": "contracts/FundMe.sol:FundMe",
                "label": "s_priceFeed",
                "offset": 0,
                "slot": "2",
                "type": "t_contract(AggregatorV3Interface)45"
            }
        ],
        "types": {
            "t_address": {
                "encoding": "inplace",
                "label": "address",
                "numberOfBytes": "20"
            },
            "t_array(t_address)dyn_storage": {
                "base": "t_address",
                "encoding": "dynamic_array",
                "label": "address[]",
                "numberOfBytes": "32"
            },
            "t_contract(AggregatorV3Interface)45": {
                "encoding": "inplace",
                "label": "contract AggregatorV3Interface",
                "numberOfBytes": "20"
            },
            "t_mapping(t_address,t_uint256)": {
                "encoding": "mapping",
                "key": "t_address",
                "label": "mapping(address => uint256)",
                "numberOfBytes": "32",
                "value": "t_uint256"
            },
            "t_uint256": {
                "encoding": "inplace",
                "label": "uint256",
                "numberOfBytes": "32"
            }
        }
    }
}