{
    "address": "0x6CB15C5123Ee5BABe8e11bfE28f67A4afDB72Ad6",
    "abi": [
        {
            "inputs": [
                {
                    "internalType": "address",
                    "name": "priceFeedAddress",
                    "type": "address"
                }
            ],
            "stateMutability": "nonpayable",
            "type": "constructor"
        },
        {
            "stateMutability": "payable",
            "type": "fallback"
        },
        {
            "inputs": [
                {
                    "internalType": "address",
                    "name": "",
                    "type": "address"
                }
            ],
            "name": "addressToAmountFunded",
            "outputs": [
                {
                    "internalType": "uint256",
                    "name": "",
                    "type": "uint256"
                }
            ],
            "stateMutability": "view",
            "type": "function"
        },
        {
            "inputs": [],
            "name": "fund",
            "outputs": [],
            "stateMutability": "payable",
            "type": "function"
        },
        {
            "inputs": [
                {
                    "internalType": "uint256",
                    "name": "",
                    "type": "uint256"
                }
            ],
            "name": "funders",
            "outputs": [
                {
                    "internalType": "address",
                    "name": "",
                    "type": "address"
                }
            ],
            "stateMutability": "view",
            "type": "function"
        },
        {
            "inputs": [],
            "name": "i_owner",
            "outputs": [
                {
                    "internalType": "address",
                    "name": "",
                    "type": "address"
                }
            ],
            "stateMutability": "view",
            "type": "function"
        },
        {
            "inputs": [],
            "name": "minUsd",
            "outputs": [
                {
                    "internalType": "uint256",
                    "name": "",
                    "type": "uint256"
                }
            ],
            "stateMutability": "view",
            "type": "function"
        },
        {
            "inputs": [],
            "name": "priceFeed",
            "outputs": [
                {
                    "internalType": "contract AggregatorV3Interface",
                    "name": "",
                    "type": "address"
                }
            ],
            "stateMutability": "view",
            "type": "function"
        },
        {
            "inputs": [],
            "name": "withdraw",
            "outputs": [],
            "stateMutability": "nonpayable",
            "type": "function"
        },
        {
            "stateMutability": "payable",
            "type": "receive"
        }
    ],
    "transactionHash": "0x43ef359cc711828244b8d46fe4c397813740d50b87347ac6b863f0f4ad20daf3",
    "args": [
        "0x8A753747A1Fa494EC906cE90E9f37563A8AF630e"
    ],
    "numDeployments": 1,
    "solcInputHash": "2cde03eed932d8c57b2e48734b1c50a2",
    "bytecode": "0x60a060405234801561001057600080fd5b506040516200104a3803806200104a83398181016040528101906100349190610115565b3373ffffffffffffffffffffffffffffffffffffffff1660808173ffffffffffffffffffffffffffffffffffffffff1660601b8152505080600260006101000a81548173ffffffffffffffffffffffffffffffffffffffff021916908373ffffffffffffffffffffffffffffffffffffffff16021790555050610142565b600080fd5b600073ffffffffffffffffffffffffffffffffffffffff82169050919050565b60006100e2826100b7565b9050919050565b6100f2816100d7565b81146100fd57600080fd5b50565b60008151905061010f816100e9565b92915050565b60006020828403121561012b5761012a6100b2565b5b600061013984828501610100565b91505092915050565b60805160601c610ee262000168600039600081816102e501526105780152610ee26000f3fe6080604052600436106100745760003560e01c8063741bef1a1161004e578063741bef1a1461010c578063b60d428814610137578063dba6335f14610141578063dc0d3dff1461016c57610083565b80633ccfd60b1461008d5780633e47d6f3146100a457806351b80e41146100e157610083565b36610083576100816101a9565b005b61008b6101a9565b005b34801561009957600080fd5b506100a26102e3565b005b3480156100b057600080fd5b506100cb60048036038101906100c691906107ae565b61052c565b6040516100d891906107f4565b60405180910390f35b3480156100ed57600080fd5b506100f6610544565b60405161010391906107f4565b60405180910390f35b34801561011857600080fd5b50610121610550565b60405161012e919061086e565b60405180910390f35b61013f6101a9565b005b34801561014d57600080fd5b50610156610576565b6040516101639190610898565b60405180910390f35b34801561017857600080fd5b50610193600480360381019061018e91906108df565b61059a565b6040516101a09190610898565b60405180910390f35b674563918244f400006101e7600260009054906101000a900473ffffffffffffffffffffffffffffffffffffffff16346105d990919063ffffffff16565b1015610228576040517f08c379a000000000000000000000000000000000000000000000000000000000815260040161021f90610969565b60405180910390fd5b6000339080600181540180825580915050600190039060005260206000200160009091909190916101000a81548173ffffffffffffffffffffffffffffffffffffffff021916908373ffffffffffffffffffffffffffffffffffffffff16021790555034600160003373ffffffffffffffffffffffffffffffffffffffff1673ffffffffffffffffffffffffffffffffffffffff16815260200190815260200160002060008282546102da91906109b8565b92505081905550565b7f000000000000000000000000000000000000000000000000000000000000000073ffffffffffffffffffffffffffffffffffffffff163373ffffffffffffffffffffffffffffffffffffffff1614610371576040517f08c379a000000000000000000000000000000000000000000000000000000000815260040161036890610a5a565b60405180910390fd5b60005b60008054905081101561041c57600080828154811061039657610395610a7a565b5b9060005260206000200160009054906101000a900473ffffffffffffffffffffffffffffffffffffffff1690506000600160008373ffffffffffffffffffffffffffffffffffffffff1673ffffffffffffffffffffffffffffffffffffffff1681526020019081526020016000208190555050808061041490610aa9565b915050610374565b50600067ffffffffffffffff81111561043857610437610af2565b5b6040519080825280602002602001820160405280156104665781602001602082028036833780820191505090505b506000908051906020019061047c9291906106a4565b5060003373ffffffffffffffffffffffffffffffffffffffff16476040516104a390610b52565b60006040518083038185875af1925050503d80600081146104e0576040519150601f19603f3d011682016040523d82523d6000602084013e6104e5565b606091505b5050905080610529576040517f08c379a000000000000000000000000000000000000000000000000000000000815260040161052090610bb3565b60405180910390fd5b50565b60016020528060005260406000206000915090505481565b674563918244f4000081565b600260009054906101000a900473ffffffffffffffffffffffffffffffffffffffff1681565b7f000000000000000000000000000000000000000000000000000000000000000081565b600081815481106105aa57600080fd5b906000526020600020016000915054906101000a900473ffffffffffffffffffffffffffffffffffffffff1681565b6000808273ffffffffffffffffffffffffffffffffffffffff1663feaf968c6040518163ffffffff1660e01b815260040160a06040518083038186803b15801561062257600080fd5b505afa158015610636573d6000803e3d6000fd5b505050506040513d601f19601f8201168201806040525081019061065a9190610c60565b50505091505060006402540be400826106739190610cdb565b90506000670de0b6b3a7640000868361068c9190610df2565b6106969190610e7b565b905080935050505092915050565b82805482825590600052602060002090810192821561071d579160200282015b8281111561071c5782518260006101000a81548173ffffffffffffffffffffffffffffffffffffffff021916908373ffffffffffffffffffffffffffffffffffffffff160217905550916020019190600101906106c4565b5b50905061072a919061072e565b5090565b5b8082111561074757600081600090555060010161072f565b5090565b600080fd5b600073ffffffffffffffffffffffffffffffffffffffff82169050919050565b600061077b82610750565b9050919050565b61078b81610770565b811461079657600080fd5b50565b6000813590506107a881610782565b92915050565b6000602082840312156107c4576107c361074b565b5b60006107d284828501610799565b91505092915050565b6000819050919050565b6107ee816107db565b82525050565b600060208201905061080960008301846107e5565b92915050565b6000819050919050565b600061083461082f61082a84610750565b61080f565b610750565b9050919050565b600061084682610819565b9050919050565b60006108588261083b565b9050919050565b6108688161084d565b82525050565b6000602082019050610883600083018461085f565b92915050565b61089281610770565b82525050565b60006020820190506108ad6000830184610889565b92915050565b6108bc816107db565b81146108c757600080fd5b50565b6000813590506108d9816108b3565b92915050565b6000602082840312156108f5576108f461074b565b5b6000610903848285016108ca565b91505092915050565b600082825260208201905092915050565b7f4469646e27742073656e6420656e6f7567680000000000000000000000000000600082015250565b600061095360128361090c565b915061095e8261091d565b602082019050919050565b6000602082019050818103600083015261098281610946565b9050919050565b7f4e487b7100000000000000000000000000000000000000000000000000000000600052601160045260246000fd5b60006109c3826107db565b91506109ce836107db565b9250827fffffffffffffffffffffffffffffffffffffffffffffffffffffffffffffffff03821115610a0357610a02610989565b5b828201905092915050565b7f53656e646572206973206e6f74206f776e657200000000000000000000000000600082015250565b6000610a4460138361090c565b9150610a4f82610a0e565b602082019050919050565b60006020820190508181036000830152610a7381610a37565b9050919050565b7f4e487b7100000000000000000000000000000000000000000000000000000000600052603260045260246000fd5b6000610ab4826107db565b91507fffffffffffffffffffffffffffffffffffffffffffffffffffffffffffffffff821415610ae757610ae6610989565b5b600182019050919050565b7f4e487b7100000000000000000000000000000000000000000000000000000000600052604160045260246000fd5b600081905092915050565b50565b6000610b3c600083610b21565b9150610b4782610b2c565b600082019050919050565b6000610b5d82610b2f565b9150819050919050565b7f63616c6c206661696c6564000000000000000000000000000000000000000000600082015250565b6000610b9d600b8361090c565b9150610ba882610b67565b602082019050919050565b60006020820190508181036000830152610bcc81610b90565b9050919050565b600069ffffffffffffffffffff82169050919050565b610bf281610bd3565b8114610bfd57600080fd5b50565b600081519050610c0f81610be9565b92915050565b6000819050919050565b610c2881610c15565b8114610c3357600080fd5b50565b600081519050610c4581610c1f565b92915050565b600081519050610c5a816108b3565b92915050565b600080600080600060a08688031215610c7c57610c7b61074b565b5b6000610c8a88828901610c00565b9550506020610c9b88828901610c36565b9450506040610cac88828901610c4b565b9350506060610cbd88828901610c4b565b9250506080610cce88828901610c00565b9150509295509295909350565b6000610ce682610c15565b9150610cf183610c15565b9250827f7fffffffffffffffffffffffffffffffffffffffffffffffffffffffffffffff0482116000841360008413161615610d3057610d2f610989565b5b817f80000000000000000000000000000000000000000000000000000000000000000583126000841260008413161615610d6d57610d6c610989565b5b827f80000000000000000000000000000000000000000000000000000000000000000582126000841360008412161615610daa57610da9610989565b5b827f7fffffffffffffffffffffffffffffffffffffffffffffffffffffffffffffff0582126000841260008412161615610de757610de6610989565b5b828202905092915050565b6000610dfd826107db565b9150610e08836107db565b9250817fffffffffffffffffffffffffffffffffffffffffffffffffffffffffffffffff0483118215151615610e4157610e40610989565b5b828202905092915050565b7f4e487b7100000000000000000000000000000000000000000000000000000000600052601260045260246000fd5b6000610e86826107db565b9150610e91836107db565b925082610ea157610ea0610e4c565b5b82820490509291505056fea264697066735822122088d17b127564758e2104eb8bc591787072418dca334976ab952b7858d34dd6dc64736f6c63430008080033",
    "devdoc": {
        "kind": "dev",
        "methods": {},
        "version": 1
    },
    "userdoc": {
        "kind": "user",
        "methods": {},
        "version": 1
    },
    "storageLayout": {
        "storage": [
            {
                "astId": 59,
                "contract": "contracts/FundMe.sol:FundMe",
                "label": "funders",
                "offset": 0,
                "slot": "0",
                "type": "t_array(t_address)dyn_storage"
            },
            {
                "astId": 63,
                "contract": "contracts/FundMe.sol:FundMe",
                "label": "addressToAmountFunded",
                "offset": 0,
                "slot": "1",
                "type": "t_mapping(t_address,t_uint256)"
            },
            {
                "astId": 66,
                "contract": "contracts/FundMe.sol:FundMe",
                "label": "priceFeed",
                "offset": 0,
                "slot": "2",
                "type": "t_contract(AggregatorV3Interface)45"
            }
        ],
        "types": {
            "t_address": {
                "encoding": "inplace",
                "label": "address",
                "numberOfBytes": "20"
            },
            "t_array(t_address)dyn_storage": {
                "base": "t_address",
                "encoding": "dynamic_array",
                "label": "address[]",
                "numberOfBytes": "32"
            },
            "t_contract(AggregatorV3Interface)45": {
                "encoding": "inplace",
                "label": "contract AggregatorV3Interface",
                "numberOfBytes": "20"
            },
            "t_mapping(t_address,t_uint256)": {
                "encoding": "mapping",
                "key": "t_address",
                "label": "mapping(address => uint256)",
                "numberOfBytes": "32",
                "value": "t_uint256"
            },
            "t_uint256": {
                "encoding": "inplace",
                "label": "uint256",
                "numberOfBytes": "32"
            }
        }
    }
}